:020000040800F2
:1000000088780424AD020008B5020008B303000894
:10001000B3030008BB020008BD0200080000000096
:10002000000000000000000000000000BF02000807
:10003000C102000800000000FF020008DF2C0208D7
:10004000C7020008C7020008C7020008C70200086C
:10005000C7020008C7020008C7020008C70200085C
:10006000C7020008C7020008C70200082DA5010842
:1000700045A501085DA501085FA50108C7020008A4
:10008000C7020008C7020008C7020008C70200082C
:10009000C7020008C7020008C7020008C70200081C
:1000A000C7020008C7020008C7020008C70200080C
:1000B000C7020008C7020008C7020008C7020008FC
:1000C000C7020008C7020008C7020008C7020008EC
:1000D000AD2B0208C7020008713D0208C7020008E4
:1000E000C7020008C702000800000000C70200089D
:1000F000C7020008C7020008C7020008C7020008BC
:10010000C7020008C7020008C7020008C7020008AB
:10011000C7020008C7020008C7020008C70200089B
:10012000C7020008C7020008C7020008C70200088B
:10013000C7020008C7020008C7020008C70200087B
:1001400000000000000000000000000000000000AF
:10015000C7020008C7020008C7020008C70200085B
:10016000C7020008C7020008C7020008C70200084B
:10017000C7020008C7020008C7020008000000000C
:10018000C7020008C7020008C7020008C70200082B
:10019000C7020008C7020008C7020008C70200081B
:1001A000C7020008C7020008C7020008C70200080B
:1001B000C7020008C7020008C7020008C7020008FB
:1001C000C7020008C7020008C7020008C7020008EB
:1001D000C7020008C7020008C7020008C7020008DB
:1001E000C7020008C7020008C7020008C7020008CB
:1001F000C7020008C7020008C7020008C7020008BB
:10020000C7020008C7020008C7020008C7020008AA
:10021000C7020008C7020008C7020008C70200089A
:10022000C7020008C7020008C7020008000000005B
:10023000C7020008C702000800000000C70200084B
:10024000C7020008C7020008C7020008C70200086A
:10025000C7020008C7020008C7020008C70200085A
:10026000C7020008C7020008C7020008C70200084A
:10027000C7020008C7020008C7020008000000000B
:10028000C7020008C7020008C702000800000000FB
:1002900000000000C7020008DFF80CD000F056F99B
:1002A000004800476D9F010888780424064880476D
:1002B00006480047FEE7FEE7FEE7FEE7FEE7FEE74B
:1002C000FEE7FEE7FEE7FEE7152E020899020008AA
:1002D000EFF3108072B6704780F3108870473A4A87
:1002E0001368012B04D04FF001031360374A1060EC
:1002F000374A116037484FF0805101607047EFF383
:10030000108272B63048016851B34FF000010160AD
:100310002E48016891B1EFF309811EF0100F08BF5C
:1003200021ED108B21E9F00F4FF000041EF0100FAB
:1003300008BF012441F8044D0068016024490968A0
:10034000096808C9B1E8F00F002B18BFB1EC108B99
:1003500081F309884EF0100E002B18BF2EF0100EFE
:1003600082F310884EF0040E704719490860EFF3CD
:10037000148222F0040282F3148814494FF0000022
:10038000086011494FF00100086013484FF47F01E5
:10039000D0F8002041EA020101600E484FF0805180
:1003A00001600E480068006880F3088861B662B694
:1003B0007047EFF3098000B525F088FB5DF804EB8A
:1003C0004EF0040E704700005C000024540000242E
:1003D0005800002404ED00E020ED00E008ED00E00E
:1003E0002DE9F05F0546002092469B46884606466A
:1003F000814640241BE0284641464746224600F0FD
:1004000095F853465A46C01A914110D311461846E2
:10041000224600F07CF82D1A67EB01084F46224671
:100420000120002100F073F817EB00094E41201E57
:10043000A4F10104DFDC484631462A464346BDE8C4
:10044000F09F10B5441A0346944209D2841811440F
:1004500003E011F8013D04F8013D521EF9D210BD30
:1004600040EA0104A40703D009E010C9121F10C319
:10047000042AFAD203E011F8014B03F8014B521E93
:10048000F9D210BDD2B201E000F8012B491EFBD217
:1004900070470022F6E710B513460A46044619468F
:1004A000FFF7F0FF204610BD421C10F8011B002989
:1004B000FBD1801A704730B504460020034600E0A7
:1004C0005B1C934203D2E05CCD5C401BF8D030BD96
:1004D000034611F8012B00F8012B002AF9D1184628
:1004E000704730B50B46014600202022012409E068
:1004F00021FA02F59D4205D303FA02F5491B04FADD
:1005000002F52844151EA2F10102F1DC30BD202ABB
:1005100004DB203A00FA02F1002070479140C2F15A
:10052000200320FA03F3194390407047202A04DB8C
:10053000203A21FA02F00021704721FA02F3D0405C
:10054000C2F120029140084319467047064C074DFE
:1005500006E0E06840F0010394E807009847103493
:10056000AC42F6D3FFF79CFE00CB020820CB02087A
:1005700070B58D1810F8014B14F0030201D110F87A
:10058000012B231106D110F8013B03E010F8016B99
:1005900001F8016B521EF9D1ABB110F8012B04F038
:1005A0000C048A1A0C2C03D0A2EB84129B1C08E0CA
:1005B00010F8014BA2EB0422F8E712F8014B01F806
:1005C000014B5B1EF9D5A942D4D3002070BD0000B9
:1005D00037B544680546014620460DF0F7F9002876
:1005E0005CD02B680F2B16D004DC0B2B22D00E2BEB
:1005F00032D050E0282B47D0B3F5107F05D0112B17
:1006000049D1274B1B6813B948E0264B1B68294684
:100610002046984742E0204602F012FF02AB43F822
:10062000040D426E1846156802F06CFFB5B3204603
:10063000A84733E0204602AC02F002FF0190683088
:1006400002F058FE54F8040D03216C3002F05FFEF6
:10065000204602F057FF1EE0EA680CCA0D2A02D0BD
:10066000202A06D010E0002B0EDD204617F0F9FB03
:1006700005E0002B03DD204617F0F3FB0EE002211E
:10068000204617F006FC09E0EB6823B94FF48071AF
:1006900020460DF077F928460DF044FE03B030BD3A
:1006A000F8340424CC010024F0B5B0F90C50044611
:1006B00087B0B0F910701D44A369B0F90E60B0F9AD
:1006C0000A000493B4F90830104432460393638A55
:1006D000029300238DE80A003B46294600F008F803
:1006E0000546616800F073F9284607B0F0BD0000C8
:1006F0002DE9F04186B0984605460E46174605F0AE
:1007000039FB1B4B3146109C3A46029328460D9B01
:100710004C3401930C9B0394009343460DF03EFD33
:100720008046F8B1134E06AF02F08AFE10220F99F0
:10073000351D05900DF032FB57F804ED0FCD0EF18D
:1007400034040FC40FCD0FC495E80F0084E80F00E8
:10075000736B3846CEF8643002F0D4FE736B4046BB
:100760005B68984707F042FE404606B0BDE8F0815E
:10077000D1050008CC0100248C4B82682DE9F041A2
:1007800053F8225088B043680446052B0ED006DC8F
:10079000002B40F0078100680EF0BEFE02E1062B40
:1007A00000F08980122B00F0AA80FBE0EE69002E99
:1007B00051D0AB68103003936B6802932B6800969E
:1007C000002601930FC808F0E5FD55F8260006F055
:1007D000B4FFEB69A26921696069D21A19443044F7
:1007E00003F06CFDEB69A2692169E069D21A194432
:1007F000801B03F063FDEB69E26961692069D21A2D
:100800001944304403F08AFFA069EB69E269801B58
:1008100061690136D21A194403F080FF022ED4D147
:10082000A86806F08AFFE969206966694218E369E9
:1008300002305B1A013A314403F0D4FFE969A2693E
:100840006669501AE369023A5B1A0130314403F0D9
:10085000C9FFEE690FE055F8260006F06EFF04F1BF
:1008600010000FC89B1B921B31443044013603F02B
:10087000A1FD022EEFD16169E3692F69A2690B44E2
:10088000206902310197921BEF6830445B1000979A
:1008900003F0DAFC04F114012069AC6930440EC99C
:1008A000194401946C69023B4910921B0094013178
:1008B00003F0CAFC76E0006802F0C2FD04902068F4
:1008C0000FF058FA049B30B1A26852B91A6F003287
:1008D00018BF012206E05A6F002A0CBF0022022234
:1008E00000E0002203EB820304A8DD6E02F00AFEA2
:1008F0000023216828461A4603F0E0F952E0006818
:1009000008AE02F09DFDD0F8688046F8100DB8F1F1
:10091000000F44D0A368B0F95C7023B1032B0CBF67
:100920000223002300E0012300EB8303406D1C6CD5
:1009300006F032FF204608AC06F0FFFE06A804F0E1
:1009400011F8A98BBDF81C3006A8BDF818205B1A59
:100950000A44ADF81C30BDF81A30ADF81820023347
:10096000ADF81A30BDF81E30023BADF81E30049BC6
:10097000B3F96020B3F95E1006F0A7FA304602F032
:10098000C1FD022006F074FF404602F059FD3A46D0
:1009900006A944F80C0D03F09FFA204600E030460B
:1009A00002F0B0FD002008B0BDE8F0815CBF020895
:1009B00038B504460D4610461946049A03F05AF914
:1009C000294602462046BDE8384000F02EB873B5EF
:1009D0000D46044628B305F0CDF9204602F030FD5F
:1009E000866E00906846019602F08CFD294601A8AB
:1009F00009F0E2F900280CBF012500250ED0019B6B
:100A00009E4208D0204602F01BFD019B00908366A9
:100A1000684602F077FD20460EF045FA07F0E6FC46
:100A200000E00125284602B070BD73B50C4616469D
:100A30000546C0B105F09EF9284602F001FD022CE2
:100A400001900BD81A34A4002044043002F052FC68
:100A5000019928460C4466600EF025FA01A802F0C0
:100A600051FD07F0C3FC02B070BD2DE9F3474468A7
:100A70000646014620460CF0A9FF002800F08380BE
:100A800033680E2B15D00EDC0B2B79D1204602AC2F
:100A900002F0D6FC44F8040D783002F02BFC20461E
:100AA00002F030FD6CE00F2B25D0B3F5107F31D074
:100AB00066E0204602F0C4FC02AB43F8040D90F857
:100AC000747090F87550184602F01CFD20460FF027
:100AD00051F9002854D0F3685A68002A50DD1B6889
:100AE000202B4DD16B1C204693FBF7F107FB1131F6
:100AF00000F0FBFA44E0204602F0A2FC02AB43F80F
:100B0000040D026F1846156802F0FCFCDDB32046A8
:100B1000A84738E0204602F093FC034602A8B3F948
:100B2000308040F8043D93F8749093F8757002F0AB
:100B3000E9FCF568ADB120460EF0C4F8824690B9E4
:100B40002B7A9BB1012120460EF080FB7B1C2046B6
:100B5000554693FBF9F109FB113100F0C6FA01216A
:100B600006E0032104E00025294601E001250221D9
:100B700020460EF020FA012D02D1404606F090FEEC
:100B800030460DF0CFFB02B0BDE8F087F0B5B0F90C
:100B90000C50044687B0B0F910701D44A369B0F939
:100BA0000E60B0F90A000493B4F9083010443246DC
:100BB0000393638A029300238DE80A003B4629468B
:100BC00000F002F807B0F0BD2DE9F043154687B0FC
:100BD000804689461C460F9F294E05F0CBF825B963
:100BE00033689B681B689847054624B933689B683F
:100BF0001B689847044632696FF070434046494687
:100C00009A42129B2A4603F1540308BF47F001079A
:100C100003931C4B019702930E9B009323460DF008
:100C2000BDFA804628B302F00BFC10221199059002
:100C30000DF0B4F80DF1180E134D5EF8047D0FCDD4
:100C400007F134040FC40FCD0FC40FCD0FC495E8C6
:100C50000700336884E807003B670223704687F883
:100C600074300F23FB6702F04DFC336840465B682D
:100C7000984707F0BBFB404607B0BDE8F08300BFD4
:100C8000040200246B0A0008080200242DE9F04F3A
:100C9000054600688DB028B10FF06CF8B0FA80F608
:100CA000760900E006466C68BF4B072C53F82670A7
:100CB0001ED014DC002C00F01081062C40F02181A5
:100CC000AB68286803F1FF39039300F0DFF9B74BF5
:100CD000824653F82640142303FB09F33CE0122C10
:100CE00069D0192C00F0F7800A2C40F00A818FE0BF
:100CF000286800F0CBF9064628680DF0E5FC30B90D
:100D0000286800F0A9F906F00DFD02F09DFD002411
:100D100057F8240006F011FD28696969331820444A
:100D20002144013B1B1B01341A4603F043FB032CF7
:100D3000EED128693A693318696901920330FA687B
:100D4000043B033100921A4603F07EFAD9E0B4F86E
:100D50004820924503D0E46C002CF8D1D3E0E2188F
:100D60009268002AF7D01EE00C2302220121BFB2B4
:100D700003FB09439A62049A83F82C101A63142324
:100D8000039A03FB024203FB094322F80E1C0021D5
:100D900022F8108C19610599C3F808B0D96022F8BF
:100DA000147C22F8127C03221420114600FB094017
:100DB00003F064F9A5E0286802F042FB03460CA8A2
:100DC000B3F9546040F80C3D5F6CD3F8348093F86D
:100DD000569002F097FB286800F058F904460AA8DC
:100DE0000DF0DCFBBDF8283040464B441C44ADF808
:100DF00028402C6A06F0D0FC022006F039FD384667
:100E000006F09BFC32460AA9204603F065F878E01C
:100E1000286802F015FB03460CA8B3F9546040F8AB
:100E20000C3D9C6CD3F8348093F8569002F06AFB2A
:100E3000286800F02BF907460AA80DF0AFFBBDF8B3
:100E40002830286A4B441F44ADF8287003F00DFE8B
:100E50000546404603F042FE26F00303042B0BD068
:100E60000C2B0ED1BDF92E200223121A013292FB57
:100E7000F3F2ADF82A2004E0BDF82E301B1AADF8CD
:100E80002A3026F00C03012B0BD0022B0ED1BDF91A
:100E90002810BDF92C20521A521B92FBF3F30B447D
:100EA00002E0BDF82C305B1BADF82830BDF82830CF
:100EB000013B1D44BDF82A30013BADF82C501844CD
:100EC000ADF82E00204606F038FC4FF0FF310AA89E
:100ED00003F02EF915E0BC69B9E028680EF01CFBA0
:100EE000286802F0ADFA02460CA8B2F90630B2F951
:100EF000021040F8082D5B1A0133D36702F002FBA1
:100F0000A5E00024A3E0502002F00EFA04460028D9
:100F100000F09D80264B502200210AF101081D6837
:100F20000693A8477A69AAF10607042504F140034D
:100F300062641E4A049352F8261042F826400526A1
:100F4000E1640C21A4F848A001FB094197FBF6F2EB
:100F5000022601F1280397FBF6F697FBF5F5751BC2
:100F6000B61A05931544082298FBF2F808FB07F21D
:100F70001046029202F0D8F9834600283FF413AFDE
:100F8000069B0021029A1B68984708FB05FE012377
:100F90009E420FDC012EAAF1070308FB05FEB8BF35
:100FA0000126029340E000BFD4BF02086836042443
:100FB00070030024802103F00702012041FA02F2AD
:100FC0000EEBE3010290D2B20692EA1C07922A4687
:100FD0000798824211D0029840B19742C1BF1BF8D6
:100FE00001C0069840EA0C0C0BF801C002980132CF
:100FF000414480EA09000290EAE701330135C64422
:10100000C6E738B18F42C2BF1BF803C042EA0C0CDE
:101010000BF803C080EA0900013143445145F0D187
:101020000136013DC8EB0E0E029B9E42BFF69CAE00
:10103000802306F0070205F1030A294643FA02F26B
:1010400008230120D2B296FBF3F37344E6E720466F
:101050000DB0BDE8F08F00BF37B5054690B104F084
:1010600089FE284602F0ECF9019020B1046C284674
:101070000DF019FF00E0044601A802F043FA07F062
:10108000B5F900E00446204603B030BD13B5044670
:1010900004F070FE204602F0D3F902ABC46F43F8AF
:1010A000040D184602F02EFA07F0A0F9204602B00F
:1010B00010BD13B5044670B104F05CFE204602F08A
:1010C000BFF902AB90F8754043F8040D184602F0E2
:1010D00019FA07F08BF9204602B010BD08B5FFF7EA
:1010E000E8FF431E5842584108BD37B50D46044637
:1010F000E0B104F03FFE204602F0A2F9034602A848
:1011000093F8742040F8043D95420BD283F8755053
:1011100002F0F8F920460DF0C6FE052120460DF03C
:101120004AFF01E002F0EEF907F060F903B030BDCC
:1011300073B50E46044608B301B304F01BFE204607
:1011400002F07EF9856F00906846019502F0DAF9A9
:10115000314601A808F030FE70B1019B9D4208D0D5
:10116000204602F06DF9019B00908367684602F00B
:10117000C9F920460DF097FE07F038F902B070BDAE
:1011800000B58BB02422002101A8FFF784F91923B0
:1011900001A80293034B1B689B685B6898470BB0E0
:1011A0005DF804FB040200242DE9F74F254C01EB08
:1011B00003091F4600EB020B236805460E465846FE
:1011C0005B6E494690465B6898472368C8EB050A02
:1011D00049465B6E08EB06095046C8EB06085B689B
:1011E00098472268EB194946526E18460193526897
:1011F00090472268019B4146526E184652689047BC
:10120000E7B12368F61B5846ED1B5B6E31465B6801
:1012100098472368314650465B6E5B689847236861
:10122000494628465B6E5B689847236841462846D6
:101230005B6E5B6803B0BDE8F04F184703B0BDE8D4
:10124000F08F00BFAC0100242DE9FF470D46044696
:10125000002800F0E98004F08DFD04AE204602F085
:10126000EFF8D0F858A046F80C0D90F85490D0F84C
:101270003480C76C304602F045F9BAF1000F03D054
:1012800029462046D047CAE0122D00F0C48005DC74
:10129000102D3CD009DC082D3BD057E01D2D43D04C
:1012A0001E2D3DD0132D51D114E0B8F1000F00F0E8
:1012B000B680404604AE02F0C3F80546394646F80B
:1012C000040D06F07DFF0544284606F027FF2B4657
:1012D000012214E0B8F1000F00F0A180404604AEF6
:1012E00002F0AEF80546394646F8040D06F068FFF0
:1012F0000544284606F012FF2B464FF0FF32014608
:1013000020460FF087FB304602F0FCF887E0791E9C
:1013100082E0002F00F08380791E204600F0EFFA73
:10132000204610F087FA7AE0204602F089F8B9F1F9
:10133000010F019002D180F854A0E4E7012339465F
:1013400080F85430204600F0DAFADCE71F2D66DD25
:10135000B9F1000F02D0204610F06CFA204602F0DE
:101360006FF8B0F9383080460290002B16DD406BE4
:1013700060B10DF1100902F063F849F8040D08F0AE
:1013800001FB0646484602F0BDF800E00646B8F903
:1013900038008642ACBF0026012600E001260DF190
:1013A000100858F8083D4046D3F84C9002F0AAF8CF
:1013B000AEB3ADB2284606F0D1FE824601462046C5
:1013C00016F06EF858B3204602F03AF8466B0290D9
:1013D000404602F097F8304602F032F80DF110085E
:1013E0000646494648F8040D06F0EAFE0644304633
:1013F000FFF75AF83146421C06EB0A00FFF721F8C6
:101400002946304606F078FE404602F07BF805217A
:1014100020460DF0D0FD791C204600F070FA2046E1
:101420000DF041FD06F0E2FF04B0BDE8F0870000DA
:1014300073B54468054620460EF09CFC29460646D6
:1014400020460CF0C3FA00286BD02B680F2B3FD03E
:1014500004DC0B2B41D00E2B4CD05FE040F213127A
:10146000934203D0B3F5107F21D057E002AE20465F
:101470000DF098FE204601F0E3FF46F8040D90F8C9
:10148000563083F0040380F85630304602F03AF8C4
:101490000021204616F0F4FE204601F0D1FF002185
:1014A0000190D0F884000DF04AFE30461FE0EB6852
:1014B0004BB11A7A2AB11968204600F0E5F80121EB
:1014C00002E0022100E0032120460DF074FD25E03A
:1014D0000121204616F0D4FE23E0204602AC01F0A4
:1014E000AFFF44F8040D343001F004FF204602F051
:1014F00009F813E096B1EB685A68002A0EDD196806
:10150000A1F10902192A05D8012303FA02F2064BB8
:1015100013401BB92046FFF797FE02E028460CF067
:1015200001FF02B070BD00BF1300040310B500241A
:1015300086B005940C9C04940B9C03940A9C029422
:10154000099C0194089C009400F002F806B010BDBC
:101550002DE9F04387B09046994605460F46129E06
:1015600004F008FC139C234B424660343946029336
:10157000284603940F9C0E9B44F4805400934B46E2
:1015800001940CF00BFE804600282DD001F058FF8E
:101590001022119905900CF001FC174D059F0FCDFD
:1015A00007F160040FC40FCD0FC42B6805A823609A
:1015B000012387F85530731C18BF0123002E87F8CC
:1015C0008830CCBF36B2082600233E877B877B63FA
:1015D00001F098FF711C404615F0FCFB044618B959
:1015E0004046A0460CF0DAFE06F000FF404607B089
:1015F000BDE8F083311400085C040024014B9868B6
:10160000704700BF5C04002413B5044668B104F0C1
:10161000B1FB204601F014FF02AB846C43F8040DCB
:10162000184601F06FFF06F0E1FE204602B010BD43
:1016300073B50C461646054698B104F09BFB284648
:1016400001F0FEFE019038B1022C05D81E3440F89E
:10165000246028460DF027FC01A801F053FF06F096
:10166000C5FE02B070BD38B504460D4604F082FBDD
:1016700034B12046294600F042F920460DF013FC13
:10168000BDE8384006F0B2BE2DE9F3410F460546ED
:10169000002853D004F06EFB284601F0D1FE0190E3
:1016A000406B002845D001F0CBFE019B0090986E66
:1016B00006F072F8064628460DF0FCF8044600983D
:1016C00003F0D3F9019A8046136E03F00303012B54
:1016D00007D0022B0AD1221A013292FBF3F3FC1A33
:1016E0000AE0231A546E01341C1B04E0546ED36AC2
:1016F00001341B681C443C1B009808F043F9002C83
:10170000024601DA002108E0A04501DA014604E0C2
:101710002146009808F0C8F80146284600F0EFF886
:10172000684601F0EFFE304606F036F828460DF028
:10173000BAFB01A801F0E6FE06F058FE02B0BDE8D3
:10174000F08100002DE9F34704468A4691461D4684
:101750000A9F9DF82C8004F00DFB002C4FD02046F2
:1017600002AE01F06DFE284BC0F848A08365274B00
:1017700090F888A0C365002346F8040DC3640123D4
:10178000C0F83C90056480F8447080F8568080F87A
:101790005430304601F0B6FEBAF1000F16D039468B
:1017A000284614F0F8FD39460546484614F0F3FD86
:1017B0000FB10130013518F0010F18BF0135854216
:1017C0002946B8BF0146204600F024F8204618F00C
:1017D0009BF9204601F034FE019000F077F80C4BA5
:1017E0001B78834205D1019B2046D96C013100F062
:1017F00086F8304601F086FE20460DF054FB06F0D8
:10180000F5FD02B0BDE8F08775040108099B0108E9
:1018100048380424F7B50D460446A8B304F0AAFAE4
:10182000204601F00DFEB0F9383002AEAB4246F86A
:10183000080D24D0478F12DD406B80B101F000FE0F
:10184000019008F09FF8854206DA2946019806F0D3
:10185000B7FC0022019B1A5401A801F053FE304648
:1018600001F050FEE91B2046013115F0B3FA204685
:1018700001F0E6FD0090058720460DF014FB304690
:1018800001F040FE06F0B2FD03B0F0BD73B50D46A9
:101890001646044698B104F06DFA204601F0D0FDDA
:1018A000019038B1022D05D800EB8500C6662046B0
:1018B0000DF0F9FA01A801F025FE06F097FD02B03F
:1018C00070BD10B1002218F0A7B8704773B5064676
:1018D000406B80B101F0B4FD02AD0446F16C45F8F7
:1018E000040D06F06DFC204406F018FC0446284662
:1018F00001F008FE00E00446204602B070BD13B5BA
:101900000C4601F09DFD0090406BF0B101F098FD98
:10191000019008F037F8009B24EAE474B3F938200A
:1019200093F85410002918BF013A9442A8BF1446F6
:10193000DA6CA042A8BF204682424FF0000218BFD6
:10194000D86401A81A6501F0DDFD684601F0DAFDF2
:1019500002B010BD2DE9F047446886B00546204628
:1019600001F06EFDC76D0090D0F888A0D0F88060BF
:10197000D0F86880B0F87C9007B13F68684601F005
:10198000C1FDBAF1000F09D0DAF8043028469847B3
:10199000002840F01A81DAF800A0F2E72B68172B34
:1019A00000F0898018DC0F2B43D006DC0B2B00F0F5
:1019B000FA800D2B00F0BD80FFE0112B1BD0142B03
:1019C00040F0FB8001A9204600F0B0FB02ABEA68C2
:1019D00003CB10605160F8E0262B6FD005DC1E2B86
:1019E0007AD0202B00F0B380E7E02A2B13D0B3F598
:1019F000107F24D0E1E0EE68204601F021FD019047
:101A00003389012B02BFB0F87C3043F48073A0F817
:101A10007C3001A8CFE0204601F012FDEB68009079
:101A200013B1C0F8843002E0D0F88430EB6068462F
:101A30003EE0002F00F0C1802046B847BDE006AF71
:101A40002046D5F80C8001F0FBFC47F8140DB0F8E7
:101A50007C60384601F056FDEB68002B00F0B58045
:101A600098F80830CBB1330702D420460DF0ACFC17
:101A700020460CF0FFFA06F48873B3F5887F40F037
:101A8000A48006F080039BB2002B40F09E800522CC
:101A9000414620460DF0FAFB97E0204601F0D0FCCD
:101AA000B0F87C30019023F48073A0F87C30384685
:101AB00001F028FD89E0C5F80C8086E0EB68022B78
:101AC00040F08380049306A92723A868039441F873
:101AD000143D0EF05BFB78E0EF68012F24D1304617
:101AE0000DF04EFA58B130460DF06EFC30460DF058
:101AF000F7F888B1394630460CF00BF80CE0404658
:101B00000DF0B6FC0646204601F09AFC0090C0F8A5
:101B10008060684601F0F6FC0121204600F0D3FA0F
:101B2000002E52D1EE6050E05146204600F0CBFA34
:101B30004BE019F0080F40D1EB68DB68002B3CD07C
:101B40001B7A002B39D020460DF03EFC35E0EE68C4
:101B50009EB3214670680EF0F3F880B10121204653
:101B600017F0DCFB214670680EF0D9F828B3204648
:101B700001F066FC06AB726843F8140D0FE05146A5
:101B8000204617F0CBFB214630680EF0C8F8A0B114
:101B9000204601F055FC06AB326843F8140DC0F83E
:101BA0008020184607E0204601F04AFC0090703083
:101BB00001F0A0FB684601F0A5FC294620460BF089
:101BC00005FF10B128460CF0ADFB06B0BDE8F0876C
:101BD000F0B5B0F90C50044689B0B0F910701D444E
:101BE000A369B0F90E60B0F90A0006930E9B104489
:101BF0003246059363680493B4F908300393638A0B
:101C0000029300238DE80A003B46294600F002F8C3
:101C100009B0F0BD2DE9F0478AB00E46984605465A
:101C20001746DDF84C9004F0A5F83A4B189C314665
:101C3000029349F4805360343A4601932846129B3C
:101C40000394009343460CF0A9FA064600285BD0A3
:101C50000DF12808DFF8C4A001F0F2FB302215993D
:101C6000554604900CF09AF858F8187D0FCD07F1FE
:101C700034040FC40FCD0FC495E80300179B84E80C
:101C800003007B660024149B4046C7F88040A7F8F9
:101C90007C30DAF82830FC66FB65C7F8884001F034
:101CA00031FC05A9304600F041FABDF91A10BDF922
:101CB0001800BDF91E30BDF91C2003945B1A164CA8
:101CC000121A01330096029441F282740132019497
:101CD0000CF064FADAF82830044630465B6898471E
:101CE000304601F0ADFB04908466404601F00AFCEA
:101CF00042F2040309EA030313B930460CF0E0FB97
:101D00001699304600F0EEF906F070FB30460AB046
:101D1000BDE8F08755190008092300084402002493
:101D20002DE9F041044690B0006800F0B5F9A54BEC
:101D3000666803F12C05002818BF1D461C2E00F212
:101D4000A281DFE816F08D01A001A001A001A00191
:101D50002701A001A001A001A001A0012700A0016E
:101D6000A0017A01A001A001A0014101A001A001F0
:101D700023001D001F002100A001A001A0012500DB
:101D8000EE6985E12E6A83E16E6A81E1AE6A7FE1E8
:101D90006E697DE11C2320680893079001F050FBD9
:101DA000036D059007A89847064605A801F0AAFB11
:101DB000012E11DDAB6802936B6801932B680093D1
:101DC00033466269A169206907F02AFA2769A36985
:101DD0003744C6EB03082CE0286805F0AEFC216907
:101DE000EA6960690A44013A02F068FAA269E9699D
:101DF0006069511A013102F061FA6769206901379F
:101E0000394602F0AFFA3946A06902F0ABFA6868C9
:101E100005F093FC20693946013002F0A3FAA0696D
:101E20003946013802F09EFA2769A3690237A3F107
:101E30000208286805F081FC42463946606902F0D4
:101E40003DFA686805F079FC606942463946013020
:101E500002F034FA6B6A022B0ADDA86805F06DFC0B
:101E600061696B6A424638460B440231013B1CE013
:101E70002A6A96421BDA6769012E236907F1020874
:101E800040F303813744F0181A4441463B46013A77
:101E900002F0A8FCA369E869012E4146A3EB00000B
:101EA000CCBF9A1B9A1E3B46013002F09BFC012ED0
:101EB0006369E769CCBFF6189E1C013F286805F0EE
:101EC0003CFC31463A46206902F028FC3A4631464D
:101ED000A06902F023FCE769686805F02EFC023F68
:101EE000206931463A46013002F018FCA0693A46B2
:101EF0003146013802F012FCEB69022B02DC2B6A3E
:101F0000022B1FDDAB6AE769022BA868CCBFFF1A62
:101F1000023F05F012FCEA69022A07DD20693B4610
:101F2000314602440230013A02F05CFC2B6A022B7B
:101F300008DDA2693B46E8693146101A023A0130D1
:101F400002F050FC286805F0F8FBA2692169E069FD
:101F500002F0B4F9686805F0F0FBA2692169E06954
:101F6000013A0131013802F0A9F9AE6A022E40F3BC
:101F70008A80A2692769E469A2F10208A868023789
:101F800005F0DBFBA11BA31E42460131384602F0DF
:101F900029FC78E0B4F91000B4F91410B4F9182051
:101FA000B4F91C302C69ADF81C000194EC68ADF854
:101FB0001E100094ADF82020ADF8223002F044F954
:101FC00061E000BF940400246369298BADF81E30E2
:101FD000A36922695B1A20680A44ADF82030E369DE
:101FE000ADF81C20ADF8223001F02AFA036F0590FD
:101FF000FBB1022005F03CFC059AB2F87C30C3F33B
:10200000C0030E3302EB8303986805F096FB059B33
:10201000586B05F0C1FB059B186F01F011FA059B89
:1020200007A90690B3F95A2001F056FF06A801F05F
:1020300069FA05A801F066FA25E02369A868ADF8F9
:102040001C306369ADF81E30A369ADF82030E36938
:10205000ADF8223005F071FB07A802F0EDFB12E0AD
:10206000206801F0EDF9B0F85A2010AB42F00C02F4
:1020700043F82C0DA0F85A20184601F043FA2068C6
:102080000DF04AFA04E0002602E0981C4746FBE601
:10209000304610B0BDE8F08113B5044680B103F0BE
:1020A00069FE204601F0CCF902ABB0F87C4043F861
:1020B000040D1846C4F3C00401F024FA06F096F9A2
:1020C000204602B010BD38B50D46044648B103F0B5
:1020D00051FE2946204617F021F9BDE8384006F0A8
:1020E00085B938BD37B50D460446E8B103F042FE68
:1020F000204601F0A5F9036F00906846019301F0B6
:1021000001FA294601A807F057FE58B1204601F010
:1021100097F9019B00900367684601F0F3F92046A8
:102120000CF0C1FE06F062F903B030BD2DE9F04FAE
:1021300087B00646894601F083F9C26D01210390FC
:1021400030469468226890472268032180463046D2
:10215000904722680221834630469047226800213A
:10216000824630469047009003980DF075FC054676
:1021700003980DF078FC07460398448E04F0200481
:10218000A4B20CB1B0F9584000F046F803990246E9
:10219000C86E18B101920CF0A9FB019AA9F80020B1
:1021A00092B2BDF80010013D1444013FA9F80E1091
:1021B000CBEB050B0C440139A9F802000FFA88F8A3
:1021C00011440FFA8BFB2044CAEB070AA9F812103E
:1021D000A9F8060003A8A9F80480A9F808B0A9F88E
:1021E0000AA0A9F80C80A9F810B001F08BF9B9F990
:1021F0000C20B9F910103046049206AA42F8041DCA
:1022000004A900F03CF8049AA9F80C20059AA9F852
:10221000102007B0BDE8F08F08B5438E024603F0EA
:1022200020039BB23BB1B0F9540028B9506B02F0C7
:1022300055FC023008BD184608BD70B58AB0064688
:102240000C4601F0FDF80AABC26D43F8280D1846A4
:10225000956801F057F90196032C0BD8DFE804F0DC
:1022600002040608182304E0162302E0152300E008
:10227000172302936B6801A898470AB070BD2DE937
:10228000F74381460D46164601F0DAF8034602A8E8
:10229000DA6D40F8083D9768B3F90040B3F9028061
:1022A00001F030F93B680021484698470746484608
:1022B0000CF0E0F9814620B3484601F0C1F8B0F9CE
:1022C00002300190C8EB03039F4213D1836A1B06BF
:1022D00008D5B0F9003032681B1B93420ADC013B81
:1022E000336007E0B0F904302A681B1B9342A4BF97
:1022F00001332B6001A801F005F948460CF064FA9F
:10230000D8E703B0BDE8F0832DE9F043456887B016
:10231000044628460CF065FA814601F091F8034620
:1023200006A85F6E40F8143D9E6CD3F8808001F0E3
:10233000E9F82368172B52D009DC0F2B14D002DCEC
:102340000E2B33D045E0143B012B48D941E01F2B25
:1023500027D002DC1E2B19D03BE0222B37D0312BAB
:1023600037D10023E3603DE06FF070439E4204D01C
:10237000304608F09BFF01F067FA9FB302AE94E885
:102380000F0086E80F000395304626E0E3684BB364
:10239000B8F1000F17D0454515D040460DF014F8A0
:1023A00020E0214648460BF011FB1BE0E3685A6829
:1023B000002A0EDD1B68092B05D00A2B09D12846FF
:1023C0000DF088F80EE028460DF052F80AE0E660BD
:1023D00008E027B12046C4F80490B84702E0204640
:1023E0000BF0A0FF07B0BDE8F08300002DE9F0413D
:1023F000D0F80C8086B0044600200E46174605F043
:10240000BFF90546B8F1000F05D098F8043013B1B4
:1024100040F0020001E025F0020005F0B1F9216969
:1024200069B101206388228803900290E0680190DE
:10243000A068009030460C683946A0471FE0DFF8DE
:1024400050802146114BD8F800201B68527CE06870
:102450009847E18820B9012904BFD8F80030986B6B
:10246000638822880590A0680490A08802910121C9
:102470000390304601910091394608F00DFA284644
:1024800006B0BDE8F04105F07BB900BFA001002413
:10249000AC0100242DE9F84340F2C3254FF47A73D0
:1024A00002270126554380468946144695FBF3F5DD
:1024B00092FBF7F70135002302FB0277FEF774FE6B
:1024C000AE4214DC04FB04F306FB06339F4206DA3B
:1024D0002346013C324649464046FEF765FE3246F9
:1024E000234649464046FEF75FFE0136E8E7BDE871
:1024F000F88330B585B0002504AC44F8045D009441
:1025000000F0D8F805B030BD2DE9F74F141A5D1A68
:102510000646884654EA0507DDF8309004D103B03A
:10252000BDE8F04F00F09EB985EAE57084EAE471F9
:10253000A0EBE570A1EBE47188420ADD21462C4650
:1025400001270D4611461A460B4631464646884637
:1025500000E0002784EAE471D9F800B0DFF850A168
:10256000A1EBE471A1421FBF98466D42334664421D
:1025700017BF164601231A464FF0FF33002D38D1FE
:10258000DAF80030C7B19B7E8BB93146404603B0C4
:10259000BDE8F04F08F0EABA16F0C2FF30B9DAF839
:1025A0000030711940465B6E5B6898470135A54263
:1025B00005EB0B00F0DD18E0997E91B95B6E4146AA
:1025C00030461B6803B0BDE8F04F184716F0A8FF6F
:1025D00030B9DAF800304146F0195B6E5B68984715
:1025E0000137A7420BEB0700F0DD0138C9F8000006
:1025F0005BE04FF00202DAF8001094FBF2F2897E01
:10260000B8BF5242B1B99146B346C6EB0B039C42E8
:102610004BDBDAF8003099FBF4F05B6E40445B680A
:1026200017B90146584600E0594698470BF1010B8F
:10263000A944EAE7591C009208BF04EB0B01B3461A
:1026400008BFC9F80010C6EB0B02D9F8000094428D
:1026500021DB18440193C9F8000016F061FF019BCB
:1026600098B9009A92FBF4F0404437B9DAF80020A8
:1026700001465846526E526805E0DAF80020594685
:102680000193526E52689047019B009A0BF1010B27
:102690002A440092D7E75A1C04BF2418C9F8004006
:1026A000D9F80020D31AC9F8003003B0BDE8F08F84
:1026B000AC0100242DE9F04FDFF8A49187B0074664
:1026C0008846D9F8004015461E46247E012C04D1C8
:1026D000109C0094FFF718FFBCE0821ACB1A52EA54
:1026E000030100F0B780002A04F1FF34B6BF0121D6
:1026F00000215242002BBCBF5B4241F002019A42D2
:10270000BFBF10461A4641F004010346501000EBCB
:10271000832393FBF2F34FEAA31EC3F383034F4AD1
:10272000C3F1100C02EB4E00BCF1100FB0F9220007
:1027300018BF02EB4E020CFB00F01CBFB2F92420C4
:1027400003FB02001023083090FBF3F04B0748BF57
:10275000C0F58060CA0748BFC0F500608B0748BF5E
:10276000C0F5805000F5806B584607F017FC00FB61
:1027700004FA584607F016FCBAF1000F00FB04F00B
:102780001FFA87FEB5BFCAF500730AF500739B12E6
:102790009B12B8BF5B420028B5BFC0F5007000F5C2
:1027A000007080128012B8BF4042002BD1BF0222BD
:1027B000591C5B104910DCBF93FBF2F103F1FF33AE
:1027C00089B2D8BF93FBF2F300289BB2D1BF022499
:1027D000421C40105210DCBF90FBF4F200F1FF30BD
:1027E00092B2D8BF90FBF4F00EEB010480B2C3EBC1
:1027F0000E0EADF808401FFA88F4ADF80CE004EBBB
:10280000020C241AADF80E40ACB2ADF80AC0E31ABF
:102810002144ADF81030B3B2ADF814100421181AE9
:102820001A440023ADF8120002A8ADF816201A468B
:1028300000F088F8D9F800305B7E1BB94146384675
:1028400000F010F8D9F800305B7E1BB931462846FD
:1028500000F008F807B0BDE8F08F00BF1CC1020807
:10286000AC010024064B1B681A7E012A02D15B6E64
:102870005B681847013A022392FBF3F200F002B8BA
:10288000AC0100242DE9F04F40F2C3264FF47A73D7
:1028900085B02B4F5643144680460125894696FB4A
:1028A000F3F60223013692FBF3F302FB02330244F8
:1028B000001B01933B685B6E1B68984708EB0503A0
:1028C000029308F1FF330393B54235DC04FB04F3B4
:1028D000019A05FB05339A4218DAB44215DD029BD2
:1028E00004EB0901C5EB030A039B03EB050B3B68F3
:1028F00050465B6E5A461B6898473B685A46C4EB85
:1029000009015B6E50461B689847013C3B68C4EB6D
:10291000080A04EB080B09EB05015B6E50465A46AA
:102920001B6898473B68C5EB09015A465B6E5046E9
:1029300001351B689847C7E705B0BDE8F08F00BFB9
:10294000AC0100242DE9F74F0546009390466D4FEA
:1029500043F6FF7400230191019A93420BDA05EBD1
:1029600083020133B2F902209442A8BF1446974271
:10297000B8BF1746F0E7644E33685B6963B1B3F9DB
:1029800006200099B3F90230521A5B1A9742A8BF89
:1029900017469C42B8BF1C46009B1C44009BC3EBDF
:1029A00004094F45C0F2AB800023584A9A46136091
:1029B000019B03F1FF3B019B9A455ADADA4505EB8F
:1029C0008A03B4BF0AF1010C4FF0000CB3F90230D6
:1029D0004FEA8C0C4B4505EB0C02B2F9021036D1D4
:1029E000494502D0534600201AE035F92AE035F96E
:1029F0000C00C644336840445B6E86451B68BDBF0F
:102A00000246214670467246A8BF21461DE053B1DA
:102A1000013B05EB8302B2F902204A4505D10130A2
:102A20008345F4DC22E05B46F3E7C9EB0202C9EB25
:102A3000010135F92A0092EA010F4FD4336800EB07
:102A4000080221465B6E10461B6898470EE0494518
:102A50000CD002DB4B4544DD02E04B4506DB01E0D8
:102A6000494503DC8B4242DC4B4520DD0AF1010A7B
:102A7000A1E74FF000094846CA46244B1B689A4517
:102A800013DA234B33F91AB0B9F1000F07D03368CA
:102A900008EB0B02214640445B6E1B68984789F0A7
:102AA00001090AF1010A5846E7E7013476E749458A
:102AB000DCDB35F92AE035F90C20C3EB0900CEEB5D
:102AC0000202CB1A4243002AD7BF581002EB63021E
:102AD00000F1FF30121A92FBF3F070440DF058FC35
:102AE000C4E78B42E5DD4945C0DC4B45BEDB1846FB
:102AF00035F90CE00B4635F92A200146DDE703B035
:102B0000BDE8F08F01C0FFFFAC010024643704244E
:102B10006837042408B50E4B186804F003FE0D4B0B
:102B2000186804F00AFE012004F084FE002004F07E
:102B30008FFE002004F09CFE002004F021FE064BD6
:102B4000186804F029FE0020BDE8084004F044BEE7
:102B500038330424A8010024A401002438B50C460D
:102B6000054600F0F7F82268AB68DA6262681A631B
:102B7000A2685A63520707D51A68596883E80600A5
:102B80009A68D968DA609960A2899A84226912B138
:102B900022EAE2721A6238BD2DE9F04104461E466F
:102BA0001746884600F0D6F8A5686822414605F524
:102BB0008A70FDF746FC2046B8472046B047236997
:102BC0009B689847A862BDE8F081000010B50446F4
:102BD00000F0C0F8114A0021A368C3F8AC20104AE5
:102BE000C3F8BC10C3F8A8200E4AC3F8D010C3F82D
:102BF000B0200D4AC3F8B8200C4A10685268C3F8D8
:102C0000B400C3F8C820DA8C094822F00302C3F8E4
:102C1000CC00DA84074AC3F8942010BD2996010835
:102C200009980108E9950108A98F0108C401002449
:102C30005F910108ED94010810B5044600F08AF890
:102C4000104B1021A468C4F8EC3020460E4BC4F899
:102C5000F0300E4BC4F8F4300D4BC4F8F8300D4B87
:102C6000C4F8A0300C4BC4F8A430D4F8C830C4F871
:102C70000431D4F8943098471023A363074B63645E
:102C800010BD00BFB51C0108795A0108A12C00082D
:102C9000D92D0008D18C0108299C01085CB10208DB
:102CA000F7B584680E461746E38C9B0743D5D4F8E6
:102CB000083120469847D4F80C31314605463A464B
:102CC00020469847D4F8983006461BB100220121CF
:102CD00020469847A36922699D42D4BF002301235F
:102CE0009542B8BF43F0010362699642B8BF43F012
:102CF000010313B9E3699E420ADD62682046236836
:102D0000013A013B00920022D4F8A8701146B8475E
:102D10002946D4F8AC30324620469847D4F8A03043
:102D200020469847D4F8983005467BB1012200210F
:102D3000204698470AE0D4F8AC3020469847D4F8AB
:102D4000A030204603B0BDE8F0401847284603B045
:102D5000F0BD000038B5856804469DB94FF4BE70DB
:102D600000F0E2FA084B4FF4BE72A0601B682946DF
:102D70009847A36802221C64DA8401221A62034A7B
:102D8000C3F8102138BD00BF70030024912D000846
:102D9000F0B5104C91B0074626466D4620340FCE54
:102DA0000FC596E80F0085E80F000FCC08AD0FC5E2
:102DB00094E80F0085E80F0010AA7B6B02EB8303F9
:102DC00053F8402C53F8203CC7F80821C7F80C31C1
:102DD00011B0F0BDA4A902082DE9F341846898461A
:102DE0000E461746E38C9B072ED5D4F808312046B3
:102DF0009847D4F80C3105463A4631462046984764
:102E0000A369226906469D42D4BF0023012395424F
:102E1000B8BF43F0010362699042B8BF43F00103B9
:102E200013B9E36998420ADD626820462368013AD3
:102E3000013B00920022D4F8A8701146B847D4F89C
:102E4000AC303246294601E0D4F8AC3020469847F1
:102E5000D4F8A4304146204602B0BDE8F0411847FE
:102E60004D4B1A68D1692DE9F04FCC698BB0A3891D
:102E7000834208D8E589854205D32568C31A4FF0F7
:102E8000FF36069513E0A368002B7CD01D88A8426E
:102E900079D35E88864276D3401B5B68666880B2D1
:102EA000069603EB800533F92030B5F90260581C13
:102EB000099368D091F818B0A17CB2F92A901BFB55
:102EC00001F3354D4846B2F92270B2F924800793D8
:102ED00094F810A008F03AFA2968079BCA69896B30
:102EE000089018460591099B069900FB031041467E
:102EF00004903846A37C039301230293D37E01936D
:102F0000937E524600935B4607F0C6FC731C1AD0B2
:102F100049F0020008F01AFA2A6806993846D3697F
:102F2000926B0592079A02FB061641460496A27C14
:102F3000039201220292DA7E019252469B7E009316
:102F40005B4607F0A9FC2B68DB695A7E1B7E9A4220
:102F500015D9B9F1020F12D089F0040008F0F6F982
:102F60000D4B1B68DB69187ED97E9A7E5B7E00FB69
:102F700001810AFB02723846434407F021FE9DF8A6
:102F8000200008F0E3F9044B617C1A68538C0B4471
:102F900053840BB0BDE8F08FAC010024044B1B68D8
:102FA000DB69DB6909B11A7C0A60587C704700BF95
:102FB000AC01002402230B807047C3699A898A42BE
:102FC00002D8DA898A420FD2986880B10388994280
:102FD0000CD342888A4209D3C91A436833F82100C6
:102FE000C043C0F3C03070470120704700207047D5
:102FF0002DE9F04F384C89B0064601462368B3F9F5
:103000002A80DB69D86900F092F8002860D0058832
:1030100047684046751B07EBC50696F802A008F006
:1030200095F9D4F800C0814617F83520DCF81CE08B
:10303000DCF838309EF818B0BCF92410BCF9220036
:103040004FF0010C05937368CDF80CA004935B4618
:10305000CDF808C09EF81BC0CDF804C09EF81AE059
:10306000CDF800E007F018FC2368DB69597E93F87F
:1030700018A00791514520D9B8F1020F1DD093F83F
:103080001BB001F073FC804601F03AFC04F055FBE4
:1030900023680799B3F924E0B3F92200DB6917F834
:1030A0003550DA7E0BFB01E30BFB0AE105FB020264
:1030B00007F086FD404604F040FB484608F046F91C
:1030C00023687178DA69907E5A8C00FB01225A8459
:1030D00009B0BDE8F08F00BFAC01002438B50D4B3E
:1030E00002460C4601461B68DD69E86900F01FF8DE
:1030F00070B10388D21A436803EBC2014878A97EF5
:1031000010FB01F024B113F8323011FB03F32360FC
:1031100038BD00BFAC01002401230B80704708B507
:10312000C06900F004F8003018BF012008BD38B1B4
:1031300003888B4202D843888B4201D28068F6E72D
:10314000704700002DE9F0470025DFF86480DFF8C4
:103150005890DFF858A0D8F800309D4217DA7C2646
:10316000D9F800707422DAF800106E430135BC19EA
:10317000231D1846FDF765F90022BA5104F10C022F
:10318000E063A26104F1080260642264E3E713F0E3
:10319000EBFC054B1A687C2303FB0020034B043037
:1031A0001860BDE8F08700BF8C340424AC01002413
:1031B000B801002470B50E4E0E4B30460E4D40F84F
:1031C0000C3F06F0ABFD2C687C235C43204600F0EE
:1031D000ABF80A4B224600211B68306098474FF03D
:1031E000FF336B6017F0A8FDBDE8704013F0BCBC66
:1031F0008C340424757F0108B80100247003002476
:1032000073B505460C46C1B102F0B4FD204600F08E
:103210001BF8064668B100F013F901900DB1084B98
:1032200000E0084B1B6822462946984701A800F099
:1032300069F905F0DBF8304600E0084602B070BDE1
:103240006C0300247003002410B5044638B102F06A
:1032500091FD20460DF010FA044605F0C7F820460F
:1032600010BD000073B5054602F084FD2846FFF747
:10327000EBFF064660B100F0E3F802AC074B2A46CC
:1032800044F8040D00211B689847204600F03AF9E5
:1032900005F0ACF8304602B070BD00BF70030024EA
:1032A000024B21F003011860596070472433042455
:1032B00010B5044680B102F05DFD084B5B6B03EB7B
:1032C000C403596848680DF083F8204615F0EEFCF9
:1032D000BDE8104005F08AB810BD00BF8437042453
:1032E00028B1034BDA6B026002B15060D8637047BB
:1032F0008437042410B5044602F03CFD2068FFF733
:10330000D7FF00232360BDE8104005F06FB870B50B
:1033100006460D460024AC4205DA06EB8400013473
:10332000FFF7E8FFF7E770BD2DE9F0410746264EAD
:1033300013F0C6FE0337306CF26B27F00307144618
:103340000437874238BF074634B154F8043C9F42E3
:1033500023682CD01C46F7E7F368B26B02EB030836
:1033600058F8045CC5EB08052B6833B1204615F00E
:1033700059FF58F8045CC5EB08052B680BBB6B685C
:103380009F421EDC28461C1D15F02CFFF368686860
:10339000E41BDB1BC01B2C44F36073693B4473616B
:1033A00002D029460DF014F844F8047C09E00BB172
:1033B00061685960616801B10B60A24201D1236864
:1033C000F3632046BDE8F0818437042408B513F088
:1033D00077FE00230B4A9918D1F8BC0010B183681E
:1033E00000200BE0083B13F1800FF4D108E05A688D
:1033F0009B68904238BF104613B19B68002BF6D1F2
:103400000C3808BD84370424024B18680C3820EAB5
:10341000E07070478437042430B1044B5B6B03EBDE
:10342000C000436858680C38704700BF84370424D4
:10343000024A936901339361704700BF84370424C3
:10344000054BDA690132DA615A6B12F83030013318
:1034500002F8303000F06EB88437042473B50446A7
:1034600008460D46FFF7F0FE064618B314B3204693
:10347000FFF7D2FF8542A8BF054602F07BFC30462D
:10348000FFF7DEFF00902046FFF7DAFF2A4602AD85
:103490000A4B0146019055F8080D1B6898472846CD
:1034A00000F030F801A800F02DF82046FFF700FFEB
:1034B00004F09CFF304602B070BD00BF6C030024D6
:1034C00010B502F057FC6424FFF780FF084BB0F5FD
:1034D000800F95BF1B6A1B6A584390FBF4F094BFA2
:1034E000B0FBF4F403FB00F404F080FF204610BDB1
:1034F00084370424024A9369013B9361704700BFFB
:103500008437042403680A4930B553F8085C4C6BCF
:1035100014F83530012B03D9CA690AB1013ACA61DE
:10352000013B04F8353000230360184630BD00BF6E
:1035300084370424034B5B6B03EBC0004068083006
:10354000704700BF843704242DE9F7430B46074634
:1035500000283CD042B111461846FFF751FEB0FAA0
:1035600080F40546640901E01446154602AE38466B
:10357000FFF766FFB0F8008046F8080DD0F8049019
:103580003046FFF7BFFF24BB08F101014846890020
:10359000FFF764FF814618B92846FFF789FE18E057
:1035A000FFF74EFF02AB43F8040D40F828501846D1
:1035B000FFF7A8FF3846FFF743FF03880090013369
:1035C000C0F8049003803046FFF79CFF02E00446F9
:1035D00000E00124204603B0BDE8F0830820FFF797
:1035E00041BE37B5054618B3FFF72AFF0090406883
:1035F000C0B10024FFF724FF0190009B1B889C4270
:1036000006DA019800EB84000134FFF773FEF4E75B
:1036100001A8FFF777FF00980430FFF76BFE002248
:10362000009B1A806846FFF76DFF2846FFF740FEB3
:1036300003B030BD13B5044640B1FFF701FF02AB44
:10364000048843F8040D1846FFF75CFF204602B0DB
:1036500010BD73B50E46044658B102ADFFF7F0FE3B
:10366000314645F8040D00F01FF804462846FFF7E0
:1036700049FF204602B070BD03888B4213B50C464B
:103680000ED9406850B1FFF7DBFE02AB50F8244082
:1036900043F8040D1846FFF735FF02E0044600E04A
:1036A0000024204602B010BD08B5FFF7E5FF18B1B1
:1036B000BDE80840FFF7C4BE08BD70B50D4604461E
:1036C00002F094FB00222B46C1B22046BDE87040B8
:1036D000AFF30080B0F1004FF0B51C6809D1601C59
:1036E0000139012618602D20C9B220706FF000400A
:1036F0000DE000284FF00006B7BF651C00244042D3
:103700001D60BEBF2D2525700124091BC9B20AB159
:103710000139C9B2DFF854E0DFF854C081B14D1E61
:103720009142EDB205D11C68671C1F609EF80070C5
:1037300027705CF8257090FBF7F4E4B20A2C03D9EB
:103740001B6800221A70F0BD07FB140015B90EB1FA
:103750000134E4B20A2C04BF0D4601241968303448
:103760004F1C1F600C702946D8E700BF483804245E
:1037700064950208002807DD0B685A1C0A602B229A
:103780001A7000220B681A7070470000F8B51446D2
:1037900006460D4602F0EEFA2046164F01F0F2F80A
:1037A000142348B103FB047463689A685968AA1A21
:1037B000711A04F001F818E003FB0473DA68B242EE
:1037C00002D11B69AB4210D0142303FB0473586968
:1037D00030B15B689A685968AA1A711A03F088FCBC
:1037E000142303FB0474E6602561BDE8F84004F08F
:1037F000FDBD00BFD8330424C3B2CAB29A1AC0F3C5
:10380000072392B210B514B2002CBCBF524214B2BE
:10381000C1F30722090C9B1AC1EB10419BB289B27C
:103820001AB208B2002ABCBF5B421AB20028B8BF65
:10383000494202FB02F2B8BF08B204FB042280B284
:1038400000FB002010BD0000002110B5084601F06B
:1038500059F943F6FF7303491A460846BDE810407C
:1038600000F002B801C0FFFF2DE9F34116461F46E4
:1038700004460D4602F07EFA042007F067FD144B63
:1038800080466846DB68DA6C1B6D144416441D44A0
:103890001F44ADF80040ADF80460ADF80250ADF83B
:1038A00006700CF0E7F838B9404607F04FFD04F019
:1038B0009DFD02B0BDE8F0813B46324629462046D8
:1038C00007F07EF90BF0DEFF0028F5D1ECE700BF32
:1038D000A0010024B0F90630B0F90420B0F90210BC
:1038E000B0F90000FFF7C0BF70B586B005460E46C0
:1038F000114602A8144606F0DBF9BDF80A20122A88
:1039000061D020D80B2A4ED00ED8082A47D005D82F
:10391000062A3AD0072A60D1314A55E0092A40D018
:103920000A2A5AD12F4A4FE00F2A46D005D80C2A2E
:1039300041D00D2A51D12C4A46E0102A3FD0112AFD
:103940004BD12A4A40E0182A27D00ED8152A20D079
:1039500005D8132A1BD0142A3FD1254A34E0162A51
:1039600019D0172A39D1234A2EE01B2A1DD005D899
:10397000192A1ED01A2A30D11F4A25E01D2A20D02C
:1039800015D3642A29D100221EE01C4A1CE01C4ADF
:103990001AE01C4A18E01C4A16E01C4A14E01C4AB3
:1039A00012E01C4A10E01C4A0EE01C4A0CE01C4AC3
:1039B0000AE01C4A08E01C4A06E01C4A04E01C4AD3
:1039C00002E01C4A00E01C4A009202A833462A4644
:1039D000214604F068FF002000E0012006B070BD21
:1039E000F0C10208ACC0020880C102082CC0020865
:1039F0007CC002084CC00208DCC00208D0C102082A
:103A00008CC002086CC002085CC002083CC00208FE
:103A1000C4950208B49502089CC002080CC10208B3
:103A2000FCC00208ECC0020890C10208B0C1020844
:103A3000CCC00208BCC00208D0CA02082DE9F34776
:103A40000546884614461E4613B90AF0D7FD0646B9
:103A5000009431462C6828460B9B0A9AA0470446DE
:103A6000002840D00AF0BDFD698A074620460AF0CA
:103A700050F84FF0000920460BF0C8FD38460BF017
:103A8000C5FD08F1FF38B8F1000F12DD55F81CAF85
:103A90000023CDF8009039461A462846D047824682
:103AA00020B920460AF07AFC50461DE00BF0AEFD2E
:103AB000E7E71D2138460BF0A8FB731C13D002F07A
:103AC00059F90AF0F1FD50B1FFF734FD80698442E5
:103AD00007D00028F8D120460BF0CAFC01E0A6422E
:103AE000F9D104F083FC204602B0BDE8F087000065
:103AF000012BF8B506460D4617461C4601DD002091
:103B0000F8BD1C20FFF710FC0028F8D00DB10561AE
:103B100009E0094B53F8241029B10B680BB1194681
:103B2000FBE70B690361002384618782C660036041
:103B300043608360F8BD00BF6038042438B51D467B
:103B4000FFF7D6FF044648B100F00EF8E3681B68A3
:103B500023B9034B16351B6843F82540204638BD72
:103B6000AC010024FFF7BCBB30B508B9012030BD63
:103B70008469012CFADC1B4B1A789442A4BF621CA6
:103B80001A70194A52F8243015461BB942F824001D
:103B9000184630BD5A680AB11346FBE7C26812687E
:103BA000D9680968914203DD1B68002BF8D1DDE775
:103BB00009D1818A012906D1196821B10B46C9684A
:103BC00009688A42F8DD5A6812B11060426001E06B
:103BD00045F824005860984208BF00230360002085
:103BE00030BD00BF593804246038042410B520B11A
:103BF0000468FFF7B9FF2046F9E710BD81690A4A5A
:103C000052F821309842036804D142F821300BB1B8
:103C100000225A60426802B11360036803B15A601F
:103C2000002303604360704760380424002070471D
:103C300001280ADC064B53F8200028B1C3681B6832
:103C40008B4203D00068F8E770470020704700BF40
:103C500060380424012809DC054B53F8200020B10A
:103C6000C3681B681BB10068F9E770470020704704
:103C700060380424F7B50F4616460546B8B10C2047
:103C8000FFF7F0FA044698B102F074F82046FFF707
:103C9000D7FB094A034602A81F8140F8043D5E8114
:103CA00083E82400FFF72EFC04F0A0FB00E00446AC
:103CB000204603B0F0BD00BFDCBF02082DE9F34190
:103CC0000E4617469846054670B1FFF7B9FB044605
:103CD00002A8236840F8044D1C68FFF713FC434614
:103CE0003A4631462846A04702B0BDE8F0810000C0
:103CF0002DE9F8430546DFF85C8017F018F8DFF887
:103D00005890054417F013F82E1A002E1FDD00F00E
:103D10003FFDD8F800309E42A8BF1E4602F02AF8A8
:103D2000D9F80040FFF784FB27461FB104F05EFB83
:103D3000013FFAE7304616F0EDFF1CB102F01AF829
:103D4000013CFAE7FFF7D6FB04F050FBDAE7BDE8E9
:103D5000F88300BFC0010024903404242DE9F04F03
:103D6000054685B0002800F08480434C02F002F83C
:103D700000F022FE07462368A146B3F9228000F036
:103D80008DFE226886B2938C9B1B93842B78002B2C
:103D900061D047F6FF71284605F0D8FD01468246FE
:103DA000284605F0A3FD2268938D03F00303012B41
:103DB00004D0022B04D190FBF3F302E0034600E0B1
:103DC0000023518C1FFA80FB2846CB1A9BB219B2F4
:103DD0005184ADF808100BF1FF31B2F924200B44E7
:103DE0005146ADF80A20013AADF80C30BBB21A4486
:103DF0000193ADF80E2002AA04F070FD2268BDF810
:103E00000A1028469184514604F0DAF92A5C05EB41
:103E1000000E019B0A2A01D00D2A12D12268918D31
:103E200001F00301013901298ABF118CA2F8228017
:103E300051849EF800100A290AD1918C0B44938476
:103E400006E0BDF80800D9F800308344A3F822B09A
:103E50009EF8003053B923689A8C16449A8D22F04C
:103E600003029E849A8504F0C1FA02E00EF1010576
:103E70008CE705B0BDE8F08FAC01002470B50E46AC
:103E80001546044601F076FF054B20461B685E840C
:103E90009D84FFF763FFBDE8704004F0A7BA00BF40
:103EA000AC010024F8B50B4B05460E4617461B68BF
:103EB000B3F92C0040F0020003F0CAFC04463A4675
:103EC00028463146FFF7DAFF2046BDE8F84003F008
:103ED000BFBC00BFAC01002447F6FF73AFF3008006
:103EE0002DE9F3410C46174698460646E0B101F02D
:103EF00041FF6CB120460BF079FB054648B1024604
:103F00002146684605F08AFD68460BF06FFB00E02D
:103F1000254643463A462146304604F033FD2846BE
:103F20000BF064FB04F062FA02B0BDE8F0812DE909
:103F3000F04F8BB00D46174606460393002800F05D
:103F40009A8001F017FFB5F90030B5F9049001939C
:103F5000C3EB0903B5F90240B5F906B0013302938A
:103F600000F02AFD17F00C0882461ED0039A304656
:103F7000029904F045FAB8F1080F05D0B8F10C0F1A
:103F800009D0B8F1040F10D110FB0AF00BF10104B5
:103F9000201A04B209E0C4EB0B03013300FB1A3012
:103FA000022390FBF3F0044424B228460BF01EFBDE
:103FB000804688B1BDF804300246294606A8ADF80F
:103FC0001830ADF81A40ADF81C90ADF81EB005F0F1
:103FD00025FD06A80BF00AFB1FFA8AF307F003077A
:103FE0000493013B0593039A304602991FFA84FB20
:103FF00005F02AFFBDF8043001468246ADF82030B6
:104000003046059BADF822405B44ADF82490ADF8F6
:10401000263005F06BFC012F11D0022F04D09FB980
:104020002B88ADF820300FE0B5F90020B5F9043049
:104030009B1A181A013090FBF7F0104402E0AB888D
:104040000133181AADF82000304608AA514604F092
:1040500045FC3046039A029905F0ECFE049B0644A9
:1040600003EB0B04337824B2002BBCD140460BF099
:10407000BDFA04F0BBF90BB0BDE8F08F73B506468E
:1040800015460C4601F076FE114B68461B68DA6C4B
:104090001B6D14441D443388ADF80040013BADF85E
:1040A00002502344ADF804307388013B2B44ADF833
:1040B00006300BF0DFFC18B904F098F902B070BDBF
:1040C0002A4621463046FEF791F90BF0DBFBF2E77A
:1040D000AC01002473B504460D46164601F04AFEB5
:1040E000124B68461B68DA6C1B6D1444B2B21D4457
:1040F000A3B2991A1344ADF80430ABB2ADF8001076
:10410000991A1344ADF80210ADF806300BF0B2FC6A
:1041100018B904F06BF902B070BD3246294620464A
:10412000FEF7B8F90BF0AEFBF2E700BFAC010024DC
:1041300013B50A460146684605F0E1FD01F01AFE96
:10414000234BBDF802101A68BDF80030B2F84C409D
:10415000B2F850002344BDF804200144ADF800300B
:104160002244BDF80630ADF8021003446846ADF8AD
:104170000420ADF806300BF07DFC18B904F036F9D8
:1041800002B010BDBDF90040BDF90430BDF9021008
:104190009C4209DC204606F0B9FC2046BDF9061019
:1041A000023406F0B3FCEFE70C46BDF906309C4242
:1041B0000BDC2146BDF9000006F0A8FC2146BDF944
:1041C0000400023406F0A2FCEFE70BF05BFBD4E73F
:1041D000AC0100242DE9F04387B00546914698468E
:1041E0000C4601F0C7FD164B04A81B68DA6C1B6D6A
:1041F000154491441C449844ADF81050ADF8149007
:10420000ADF81240ADF816800BF034FC20B904F084
:10421000EDF807B0BDE8F08300270A4E0F9B424639
:104220002946204601930E9B039700934B46029626
:1042300010F0A7FE0BF026FB0028EFD1E7E700BF48
:10424000AC0100246DAB00082DE9F04387B00446B3
:10425000904699460D4601F08DFD164B04A81B684B
:10426000DA6C1B6D144490441D449944ADF8104021
:10427000ADF81480ADF81250ADF816900BF0FAFBC3
:1042800020B904F0B3F807B0BDE8F08301270A4E67
:104290000F9B42462946204601930E9B03970093AD
:1042A0004B46029610F06DFE0BF0ECFA0028EFD1B1
:1042B000E7E700BFAC010024BDAA00082DE9F341E7
:1042C000144F804616460C4601F054FD3D68684682
:1042D0002A6DEB6C08EB02051C441E442BB2ADF8B2
:1042E0000040ADF80460ADF80230ADF806300BF0D8
:1042F000C1FB20B904F07AF802B0BDE8F0813B6858
:104300003246294620465B6E1B6898470BF0BAFA86
:10431000EFE700BFAC0100242DE9F84380461E46BC
:104320000C46154601F026FD0D4B00201B68DF6C86
:10433000D3F850900BF09EFB18B9BDE8F84304F099
:1043400055B84E443D444C4433462A46214607EB7B
:104350000800FEF7CEF80BF095FA0028F4D1ECE750
:10436000AC01002473B5124E04460D4601F002FD67
:1043700033686846DA6C1B6D14441D4423B2ADF8F3
:104380000430ADF800302BB2ADF80630ADF8023095
:104390000BF070FB18B904F029F802B070BD336857
:1043A000294620465B6E5B6898470BF06BFAF1E795
:1043B000AC0100242DE9F74306461F468846914686
:1043C00001F0D8FC1E4B1C68206DE56C247E8044F7
:1043D0002E444D44013C07446846A4B2331BADF85B
:1043E00000306319ADF80430C4EB08033C44ADF869
:1043F0000230ADF806400BF03DFB20B903F0F6FFAC
:1044000003B0BDE8F08308F1010407F1FF392A4643
:104410004146304606F052FB2A463946304606F001
:104420004DFB4A462146304606F0A0FB4A4621464F
:10443000284606F09BFB0BF025FA0028E7D1DDE7C4
:10444000AC01002470B5064688B00C46154601F054
:1044500091FC3246694603A8FFF746FA20B92A467E
:10446000214603A8FFF70AFE03F0C0FF08B070BDA5
:104470002DE9F04F99B006460D4691469A460DF14A
:10448000140801F077FC18AA0FAB00272946304624
:1044900042F8503D1023CDF80080059711F05BFFE6
:1044A0000446002840F0FE800BAF0499384605F022
:1044B000FFFBBDF82E30132B00F0E5801CD80B2B32
:1044C0004AD00CD8082B49D002D8062B4ED2EDE0AA
:1044D000092B45D00A2B40F0E980784CD4E00F2B13
:1044E00044D002D80D2B41D9E0E0102B3AD0112B4B
:1044F00040F0DC80724CC7E0192B27D00FD8162B68
:1045000020D005D8142B1BD0152B00F0D180CDE086
:10451000172B19D0182B40F0C9806A4CB4E01C2B23
:1045200018D006D81A2B13D01B2B40F0BF80664C36
:10453000AAE01D2B18D0642B40F0B880634BA4E098
:10454000634CA1E0634C9FE0634C9DE0634C9BE0B7
:10455000634C99E0634C97E0634C95E0634C93E0C7
:10456000634C91E0634C8FE0634C8DE00022063B8E
:10457000079293460692092B00F29880DFE803F039
:104580000526969696964C56966607AB0EAA294631
:10459000CDF804B000933046434612F0BBF913AA9D
:1045A000069029463846CDF800B0002304F07BF988
:1045B000069B059A29460A933046BDF83830089381
:1045C0004E4B179308AB07F0E5F84EE007AB0EAA89
:1045D0002946CDF804B000933046434612F09AF9CC
:1045E00013AA069029463846CDF800B0002304F0FF
:1045F0005AF9069B424A29460A933046BDF838309C
:1046000017920893BDF83A30059A8DF8243008AB1C
:10461000169307F0E5F828E00023CDF800B013AAC0
:104620002946384604F03FF9364B08E00023CDF820
:1046300000B013AA2946384604F035F9324B059AE2
:1046400029463046179307F061F80EE0002313AABD
:1046500029463846CDF800B004F025F92B4B059AD1
:1046600029463046179307F071F85246494613A879
:10467000FFF704FD079BEBB106A8FEF743FF079881
:10468000FEF716FE16E0224C224B03934A46059B8A
:1046900029463046029353468DE8900010F0FEFD07
:1046A000044600E03C4603F0A1FE03E0012401E0E3
:1046B000194CE9E7204619B0BDE8F08FACC00208FC
:1046C0002CC002083CC002080CC1020815540108A5
:1046D0007CC002085CC002084CC00208ECC00208A2
:1046E000DCC00208FCC002089CC00208C495020895
:1046F000B4950208CCC00208BCC00208C0C10208C0
:10470000E0C1020870C1020860C10208A0C102082D
:104710008CC002081D5301086CC0020873B5044622
:1047200016460D4601F026FB0F4B68461A68D36CFF
:10473000126D1C441544164423B2ADF80250ADF876
:104740000030ADF80430ADF806600BF093F918B9FD
:1047500003F04CFE02B070BD32462946204606F0FA
:1047600005FA0BF08FF8F2E7AC01002438B50446E7
:104770000D4600F011F910B101234560036001F00E
:10478000F9FA20460BF002F8BDE8384003F02EBEDF
:1047900010B5002400F006F808B10124FAE720461D
:1047A00010BD00000C4B10B51C681CB1A047041CC8
:1047B00018BF012409F098FE084B00281B6818BF99
:1047C00001241BB19847002818BF0124044B1B6823
:1047D00003B19847204610BD7C3804248038042457
:1047E00078380424F7B5044616461F460D4601F0F6
:1047F000C1FA104B68461B68DA6C1B6D14441644F2
:104800001D441F44ADF80040ADF80460ADF80250FF
:10481000ADF806700BF02EF918B903F0E7FD03B000
:10482000F0BD3B4632462946204606F0C9F90BF05A
:1048300029F8F1E7AC010024B0F90630B0F9042002
:10484000B0F90210B0F90000FFF7CCBF13B50B466A
:1048500030B1C488818800928268204600F002F856
:1048600002B010BD042830B5039D27D010DC01280C
:1048700018D0022838D1694302EB93026FEA430053
:10488000525C00F0060022FA00F000F0030030BD98
:1048900010281DD0202821D0082825D105FB012172
:1048A000C85C30BD694302EBD302D843525C00F0D0
:1048B000070022FA00F000F0010030BD02EB5302C5
:1048C0006943DB07505C4CBF00F00F00000930BDAE
:1048D0004C1005FB043332F8130030BD8C1005FB7F
:1048E000043352F8230030BD002030BD034B0821B3
:1048F00053F82000C3689B6A184700BF603804243F
:1049000010B501F037FA06F08BF906F0A5FA044667
:1049100003F06CFD204610BD10B5044601F02AFAE4
:10492000054B002120461B68DB695B6898470446FD
:1049300003F05CFD204610BDAC01002438B50446F0
:104940000D4601F017FA064B294620461B68DB6925
:104950005B689847044603F049FD204638BD00BF18
:10496000AC01002408B109F019BE704710B501F080
:1049700001FA06F05DF906F06FFA044603F036FD21
:10498000204610BD01289ABF024B53F8200000209A
:10499000704700BFB83504241FB50446102200211B
:1049A0006846FBF778FD2A232046694600930AF003
:1049B0001DFC039804B010BD10B501F0DBF9044BE9
:1049C0001B68DB695C7E03F011FD204610BD00BF53
:1049D000AC01002410B501F0CDF904F07DFF0446D0
:1049E00003F004FD204610BD70B504460E46154682
:1049F00001F0C0F9204631462A4606F0A5F90446E2
:104A000010B1002333602B6003F0F0FC204670BD32
:104A100038B505460C4601F0ADF9064BB3F9003048
:104A20002B60054BB3F900302360BDE8384003F03C
:104A3000DDBC00BF4A3804244C3804241FB50C46A2
:104A40000146684605F034F9BDF80A30A360BDF8A8
:104A50000E302361BDF80C30E360BDF804302360F4
:104A6000BDF80630636004B010BD10B5044604F014
:104A700089FF01462046BDE8104004F037BF16F01C
:104A800056B9000004483523037034238370C37083
:104A900061230371704700BF9901002410B501F034
:104AA00069F90C4B1A68938D03F00C03082B07D09F
:104AB0000C2B05D0042B07D1D3691C7E013C04E0EC
:104AC000D3691C7E640800E0002403F08FFC2046BC
:104AD00010BD00BFAC010024407E7047027EC07E46
:104AE00050437047024B53F820301B6918687047D9
:104AF00060380424024B53F820301B695868704713
:104B00006038042438B505460C4601F033F9044BEF
:104B10001B685D849C8403F069FC002038BD00BFE5
:104B2000AC01002490B583B000AF544A534B1B68CE
:104B300023F001031360524B1B68C3F30A0340F2D6
:104B4000494293420CBF01230023DAB24C4B1B684D
:104B5000C3F30A0340F251418B420CBF01230023EF
:104B6000DBB21343DBB21946454B1B68C3F30A03A0
:104B700040F2524293420CBF01230023DBB20B43AD
:104B8000002B10D03F4B01221A6000BF3D4B1B6829
:104B9000002BFBD13C4B3D4A1A603B4B1B683C4A07
:104BA000934218D0FEE73B4B1B68C3F30A03B3F5EF
:104BB0008A6F10D1384B01221A6000BF364B1B6838
:104BC000002BFBD1354B314A1A60344B1B68304AFD
:104BD000934200D0FEE703F04DFD314B2E221A70B8
:104BE00016F0A9F82F4812F029FA15F06DF978603F
:104BF00006F0D8F80346002B0CBF01230023DCB2DB
:104C000006F0E4F80346002B0CBF01230023DBB2BF
:104C10002343DBB2002B09D006F0CDF8044606F0A2
:104C2000DEF803461946204606F08AFB00210020E4
:104C300002F0E0FD0AF07EF8FEF784FA1A4B1B68DA
:104C4000002B12D00DE0184B1B681B68002B03D003
:104C5000154B1B681B689847134B1B685B68124A0F
:104C60001360114B1B68002BEDD1104B01221A7001
:104C70007B6818460C37BD4690BD00BF002000E0A1
:104C8000002004E00830024000300240C2A507F4D2
:104C9000CDB5E8B50010005C084C0258004C025835
:104CA000483804243C330424B433042458380424FE
:104CB00007B5019102A941F8080D034800F006F874
:104CC00003B05DF804FB00BF155700082DE9F04163
:104CD0000A4C05460E461746246898460CB1A04774
:104CE00001E012F009FC38B143463A463146284605
:104CF000BDE8F04112F000BCBDE8F081243404248A
:104D000047F28843C3582DE9F04F0446ABB043BB8C
:104D100047F20943C35C1BB112F08CFDB8B113E03C
:104D20000CF078FC80B947F28443E25847F2204304
:104D3000E3589A420BDC0AA9204613F0CFFF18B9BA
:104D40009DF82830D92B02D0012000F09CBC012214
:104D500047F20843E25447F22043E25847F28843BF
:104D6000E25047F20843E35C002B00F0028204F5B6
:104D7000E9452B682BB947F27C43E058FEF760FB0E
:104D800028602B68069347F27443E058FEF758FBFF
:104D90000990002800F0E9810023009304F5E8431E
:104DA00018330193019B009A1B689A4280F2DA81C2
:104DB0000098802209997B4B01EBC0110AA81B685F
:104DC00098470EAB33F90EEC33F90C6C33F90A8CBF
:104DD0004EEA060133F908BC33F906AC48EA010192
:104DE00033F9042C33F9027C4BEA01014AEA010150
:104DF0001143394314D133F9102C920012B223F825
:104E0000102C23F80E2C23F80C2C23F80A2C23F852
:104E1000082C23F8062C23F8042C23F8022C86E017
:104E2000B11841F2511007EB0E0C0AEB080941438F
:104E30004CF2DF4012FB00F241F67E000A4406FB12
:104E4000001133F9100C00EB0B06CBEB000B4FEA13
:104E50004B3B760302EB0B00C2EB0B028D190AEB06
:104E60000E0B711A039207EB080242F2A15602914F
:104E700002EB0B014E434C4901FB0CFC4B4901FB7F
:104E800009F94B4901FB02624A4901FB0B610CEB3A
:104E9000020640F68E1B4A4417FB0B6609EB01071E
:104EA00046F25429614443F20B0C44F2B31B18FB45
:104EB00009221EFB0C111AFB0B77C2EB000905EB54
:104EC0000108C1EB050C8118039A08F580680CF500
:104ED000806C3A4401F5806109F580694FEAE82861
:104EE00002F580624FEAEC2CC91223F8108CD21222
:104EF00023F802CC4FEAE92923F80E1C23F80C2CE6
:104F0000039A23F8049CD71B029A324407F5806762
:104F100002F58062FF12D21223F8067C23F80A2CD5
:104F2000029A961B06F58066F61223F8086C103379
:104F30002EAA93427FF446AF009A0AAE069B03EB7B
:104F4000821308220592B6F910E0B6F92050B6F99E
:104F500030804EEA0502B6F94070B6F950A048EA32
:104F60000202B6F96000B6F970B03A434AEA0202AA
:104F700002435BEA02021FD1B6F90020103252113F
:104F8000803282F30802D2B21A701A721A741A7638
:104F900083F8202083F8282083F8302083F83820F5
:104FA000D5E000BF6C03002433E3FFFFFDADFFFF3E
:104FB0003BC1FFFF84F3FFFF2A1841F251110BEBB5
:104FC0000E0C0AEB08094A434CF2DF4110FB01F0DA
:104FD00041F67E01104405FB0122B6F90010CD19FF
:104FE000CF1B6D037F035119AA1A0292C219381AF6
:104FF0000BEB0807039242F2A15204900AEB0E0059
:105000003D185543624A02FB0CFC624A02FB09F957
:10501000614A02FB0757614A02FB00500CEB07058F
:1050200040F68E124F441BFB025B09EB0005604407
:1050300043F20B0C46F2542944F2B3121EFB0C004F
:1050400018FB09771AFB025501EB000808F5003838
:105050004FEAA84808F180080FFA88F818F47F4F43
:1050600006D0B8F1000FB4BF4FF000084FF0FF08B2
:10507000091A83F8008001F500318914803109B2E2
:1050800011F47F4F03D00029B4BF0021FF21039A00
:1050900083F83810D11901F500318914803109B233
:1050A00011F47F4F03D00029B4BF0021FF21039AE0
:1050B0001972D21B02F500329214803212B212F42D
:1050C0007F4F03D0002AB4BF0022FF2283F8302094
:1050D000049A2A4402F500329214803212B212F479
:1050E0007F4F03D0002AB4BF0022FF221A74049A13
:1050F000521B02F500329214803212B212F47F4F2A
:1051000003D0002AB4BF0022FF2283F82820029A8D
:105110005A4402F500329214803212B212F47F4FD8
:1051200003D0002AB4BF0022FF221A76029ACBEBEA
:10513000020202F500329214803212B212F47F4F52
:1051400003D0002AB4BF0022FF2283F82020059A52
:1051500002360133013A05927FF4F5AE009B01332C
:1051600000931FE609A8FEF7CDF9002247F2084395
:10517000E25447F20A4347F28842E35C042B00F210
:105180007782DFE813F04C020502E90067010D00A9
:1051900033E3FFFFFDADFFFF3BC1FFFF84F3FFFFE4
:1051A000A358D90700F1D68047F22042A558ED1A3E
:1051B00047F28C43E058FEF743F947F29043064626
:1051C0000990E058FEF73CF9072D04F5E9410A90F3
:1051D000CBBF05F007020A68D20002EBC502C4BFCC
:1051E00002F180030A684FEA6505C8BFD2180B6850
:1051F00047F20C41ED00615805F58075039106F109
:1052000008012B44049100F108010193039B0591CF
:10521000002B40F3B581019B9046DDF804900833E4
:105220000793059B0293049B0693C646029D06982E
:105230004FF0000ACDF8009000990830009F083523
:1052400091F840100EF1020E3F78CF4ECE4B06EB98
:10525000810118F80AC003EB87070AF1020AD1F8A6
:10526000D060D7F8D038BAF1080FD1F8D014D7F8F9
:10527000D07C1944C54B1E4403EB21411F4406EB6F
:105280000C0B9BF8D8B000F810BC01EB0C0BBC4425
:105290009BF8D8B09CF8D8C000F80FBC00F80ECC32
:1052A0001EF801CC06EB0C0B9BF8D8B000F80CBC38
:1052B00001EB0C0BBC449BF8D8B09CF8D8C000F8AC
:1052C0000BBC00F80ACC9EF806C006EB0C0B9BF852
:1052D000D8B005F810BC01EB0C0BBC449BF8D8B05F
:1052E0009CF8D8C005F80FBC05F80ECC9EF807C096
:1052F00066446144674496F8D86005F80C6C91F8F0
:10530000D810009B05F80B1C03F1010397F8D81087
:10531000009305F80A1C8FD1069909F10409079B2F
:1053200008F1400820314B450691029901F1200116
:1053300002917FF47AAF019B02F5C072049903F5E4
:10534000C07340310193039B0491013B0599039382
:1053500040315BE7012288E147F22043A258E3583D
:105360009D1A47F28C43E058FEF76AF804F5E943CA
:10537000EA0047F20C411B6800F10808615803EB92
:10538000020E7F320A90134401910293019B002B7D
:1053900040F367810EF18003C44675460393029B78
:1053A0000093DDF800906246002619F8017F08326C
:1053B000754899F84010744B00EB810103EB8707A7
:1053C000D1F8D000D7F8D038D1F8D014D7F8D0AC75
:1053D00019446E4B15F81670184403EB21419A449A
:1053E00000EB070B9BF8D8B002F810BC01EB070BE1
:1053F00057449BF8D8B097F8D87002F80FBC02F861
:105400000E7C05EB460701367F78042E394438447C
:10541000BA4491F8D81090F8D80002F80B1C9AF80A
:10542000D81002F80C0C02F80A1CBED1009A4035C4
:10543000039B0CF1200C04329D420092B1D1019BE0
:105440000EF5807E08F14008013B0193029B03F5B5
:1054500080739AE7A358DA073FF57CAF47F2204202
:10546000DFF82881A558ED1A47F28C43E058FDF784
:10547000E7FF47F2904306460990E058FDF7E0FF4A
:10548000072D04F5E9420A90C8BF05F0070300F1B3
:105490000400D3BF1368DB00116803EBC503009061
:1054A000C8BF40334FEA6505C8BF5B18116847F2B3
:1054B0000C4201EBC505013B54F802C0321D05F159
:1054C0007F01BCF1000F5BDD01F140008946009FC8
:1054D000039003F108000293019002F12000049070
:1054E000039E043219F801EF043716F8015F2648CD
:1054F0000396254E00EB8E0E06EB8505DEF8D008F0
:10550000DEF8D0ACD5F8D060D5F8D054C2444644CB
:105510000544029810F801EF08EB254506EB0E0B49
:10552000029001989BF8D8B002F808BC05EB0E0B6E
:10553000D6449BF8D8B09EF8D8E002F807BC02F831
:1055400006EC10F801EF754401907644F24495F8AA
:10555000D850049807F8075C96F8D86082429AF809
:10556000D85007F8086C07F8065CB9D100980CF120
:10557000FF3C01F5807103F5807320300090A0E7B7
:1055800009A8FDF7BFFF6CE0D4950208CCA602087D
:1055900047F22043A258DFF8F480E3589D1A47F2FF
:1055A0008C43E058FDF74CFF04F5E9430A900430C2
:1055B0001A6847F20C43DFF8D8E002EBC502E7585F
:1055C000002F4EDD134600F1200C93F8809004303C
:1055D000197801330EEB890993F83F604144D9F8FB
:1055E000D0500EEB86060D4495F8D85000F8085CB4
:1055F000D9F8D094D6F8D0584D4401EB254595F80C
:10560000D85000F8075CD6F8D05C294491F8D8103F
:1056100000F8061C6045D8D1C032013FD0E747F200
:105620002043A558DFF86C80E3585D1B47F28C439C
:10563000E058FDF705FF04F5E94306460A901B68AC
:1056400003EBC50547F20C43E758002F09DD294657
:1056500030460822D8F80030984740350836013FD8
:10566000F3E70AA8FDF74EFF002247F29443E25405
:1056700047F288420020A358013BA35047F28442DE
:10568000A358013BA3502BB0BDE8F08FCCA6020875
:10569000D49502086C030024F8B5044600F5E940EF
:1056A00003680BB1FDF72EFF47F28C43E05808B1B9
:1056B000FDF7FEFD47F29043E05808B1FDF7F8FD15
:1056C00047F27443E05808B1FDF7F2FD47F27C431E
:1056D000E05808B1FDF7ECFD04F5E74504F5E647B1
:1056E000002604351C373B789E420ADA286C08B144
:1056F000FDF7DEFD286808B1FDF7DAFD013610354B
:10570000F1E747F27843E05818B1BDE8F840FDF7FB
:10571000CFBDF8BD10B54468E41A002C06DD006862
:10572000A2420344A8BF22460B6000E000221046BC
:1057300010BD73B50C46064600F082FA054664B10A
:105740003046FDF77DFE028A02AB2260428A43F8B2
:10575000040D18466260FDF7D5FE284602B070BD04
:105760002DE9F04F91B0054600F06AFA0446002892
:1057700040F09D812846FDF763FE47F21C330890F8
:10578000C35C012B03D147F20A42845424E0032B6B
:1057900001D0012461E047F21E32825C012AF8D177
:1057A00047F22232825C012AF3D147F21F32825C37
:1057B000012AEED147F22332825C012AE9D147F275
:1057C0001D32825C012A0CD147F22132825C012A0F
:1057D0001BD147F20A41425447F214428350082336
:1057E00031E0022AD5D147F22133C35C012B1FD10E
:1057F00047F20A43C254042247F21443C250102213
:1058000047F21C43C25008220EE0022AC1D10322F3
:1058100047F20A43C254042247F21443C2500822FA
:1058200047F21C43C250102247F22043C25042E1CB
:10583000022BAED1042247F20A43C25447F214436A
:105840000622C250102347F21C42835047F22042E6
:10585000835030E10CA8FDF755FE089B13B108A852
:10586000FDF750FE002C40F02481284610AEFDF7D5
:10587000E7FD47F2094246F8280D835C002B00F053
:1058800010813046FDF73EFE2846FDF7D9FD47F270
:105890001C3210AB865C43F8240D1846FDF732FE2F
:1058A000042E00F00681B44213DA01232246284672
:1058B00019460BF0D5F8002840F0FB80082322465B
:1058C000022128460BF0CCF8002840F0F280013489
:1058D000E9E72846FDF7B4FD0790079811F024FC8E
:1058E000079C002840F07E8104F5E64104F5E6437C
:1058F000753193F8742004F5E643097877338A42CA
:105900001B7800F26C811AB9002900F0868166E1EB
:1059100004F5E6412D310978012940F0608143B159
:1059200004F5E641013B76310978994200F06F8138
:1059300055E1BE4B009304F5E84ABD4B102200210F
:105940000CA81B680AF1480A98470023049304F541
:10595000E843049A44331B689A42BEDAB44B04F518
:10596000E84B102200211B6808A898470BF1400B58
:1059700000230393DBF80030039A9A4261DA04F5BE
:10598000E84334331B683BB104F5E84338331B6804
:1059900013B9204613F038F9002704F5E84904F557
:1059A000E64309F148093E462D3301970593DAF89D
:1059B0000030019A9A423BDA59F8043F2046009D94
:1059C000029310AB029A029903EB820858F8103C3C
:1059D00058F8202C3B443244A847002840F0FF8070
:1059E000059B1B78012B05D158F8203C013348F862
:1059F000203C19E0029B013623441D4603F5E64393
:105A00001D331B789E420FD105F5E645013795F809
:105A100021309F4209BF58F8203C0646F61848F846
:105A2000206C04BF06463746019B01330193BEE755
:105A300004F5E8439A6B013A9A63039B013303939D
:105A400098E704F5E64292F82D302D32012B05D06F
:105A500003F5E64311462D33E2180CE004F5E64366
:105A600010AA2E331B7802EB830353F8102C01325B
:105A700043F8102C11E08A420FD011F8013F10A812
:105A800000EB8300234403F5E64393F8215050F8DC
:105A9000103C2B4440F8103CEDE7049B0133049389
:105AA00055E711F041FB04463046FDF72BFD20463B
:105AB000B8E00120B6E047F21C43018A468AC2588A
:105AC000531E0B4493FBF2F347F20C42835047F210
:105AD000204287587A1E324492FBF7F247F2104771
